{
  "_format": "hh-sol-artifact-1",
  "contractName": "EarnXVerificationModule",
  "sourceName": "contracts/EarnXVerificationModule.sol",
  "abi": [
    {
      "inputs": [
        {
          "internalType": "uint64",
          "name": "_functionsSubscriptionId",
          "type": "uint64"
        }
      ],
      "stateMutability": "nonpayable",
      "type": "constructor"
    },
    {
      "inputs": [],
      "name": "EmptyArgs",
      "type": "error"
    },
    {
      "inputs": [],
      "name": "EmptySource",
      "type": "error"
    },
    {
      "inputs": [],
      "name": "NoInlineSecrets",
      "type": "error"
    },
    {
      "inputs": [],
      "name": "OnlyRouterCanFulfill",
      "type": "error"
    },
    {
      "anonymous": false,
      "inputs": [
        {
          "indexed": true,
          "internalType": "uint256",
          "name": "invoiceId",
          "type": "uint256"
        },
        {
          "indexed": false,
          "internalType": "bool",
          "name": "isValid",
          "type": "bool"
        },
        {
          "indexed": false,
          "internalType": "uint256",
          "name": "riskScore",
          "type": "uint256"
        }
      ],
      "name": "DocumentVerificationCompleted",
      "type": "event"
    },
    {
      "anonymous": false,
      "inputs": [
        {
          "indexed": true,
          "internalType": "uint256",
          "name": "invoiceId",
          "type": "uint256"
        },
        {
          "indexed": true,
          "internalType": "bytes32",
          "name": "requestId",
          "type": "bytes32"
        }
      ],
      "name": "DocumentVerificationRequested",
      "type": "event"
    },
    {
      "anonymous": false,
      "inputs": [
        {
          "indexed": true,
          "internalType": "bytes32",
          "name": "requestId",
          "type": "bytes32"
        },
        {
          "indexed": false,
          "internalType": "bytes",
          "name": "response",
          "type": "bytes"
        },
        {
          "indexed": false,
          "internalType": "bytes",
          "name": "err",
          "type": "bytes"
        }
      ],
      "name": "FunctionsResponse",
      "type": "event"
    },
    {
      "anonymous": false,
      "inputs": [
        {
          "indexed": true,
          "internalType": "bytes32",
          "name": "id",
          "type": "bytes32"
        }
      ],
      "name": "RequestFulfilled",
      "type": "event"
    },
    {
      "anonymous": false,
      "inputs": [
        {
          "indexed": true,
          "internalType": "bytes32",
          "name": "id",
          "type": "bytes32"
        }
      ],
      "name": "RequestSent",
      "type": "event"
    },
    {
      "inputs": [],
      "name": "VERIFICATION_SOURCE",
      "outputs": [
        {
          "internalType": "string",
          "name": "",
          "type": "string"
        }
      ],
      "stateMutability": "view",
      "type": "function"
    },
    {
      "inputs": [],
      "name": "coreContract",
      "outputs": [
        {
          "internalType": "address",
          "name": "",
          "type": "address"
        }
      ],
      "stateMutability": "view",
      "type": "function"
    },
    {
      "inputs": [
        {
          "internalType": "uint256",
          "name": "",
          "type": "uint256"
        }
      ],
      "name": "creditRating",
      "outputs": [
        {
          "internalType": "string",
          "name": "",
          "type": "string"
        }
      ],
      "stateMutability": "view",
      "type": "function"
    },
    {
      "inputs": [],
      "name": "donID",
      "outputs": [
        {
          "internalType": "bytes32",
          "name": "",
          "type": "bytes32"
        }
      ],
      "stateMutability": "view",
      "type": "function"
    },
    {
      "inputs": [
        {
          "internalType": "bytes32",
          "name": "",
          "type": "bytes32"
        }
      ],
      "name": "functionsRequestToInvoice",
      "outputs": [
        {
          "internalType": "uint256",
          "name": "",
          "type": "uint256"
        }
      ],
      "stateMutability": "view",
      "type": "function"
    },
    {
      "inputs": [],
      "name": "gasLimit",
      "outputs": [
        {
          "internalType": "uint32",
          "name": "",
          "type": "uint32"
        }
      ],
      "stateMutability": "view",
      "type": "function"
    },
    {
      "inputs": [
        {
          "internalType": "uint256",
          "name": "invoiceId",
          "type": "uint256"
        }
      ],
      "name": "getDocumentVerification",
      "outputs": [
        {
          "internalType": "bool",
          "name": "verified",
          "type": "bool"
        },
        {
          "internalType": "bool",
          "name": "valid",
          "type": "bool"
        },
        {
          "internalType": "string",
          "name": "details",
          "type": "string"
        },
        {
          "internalType": "uint256",
          "name": "risk",
          "type": "uint256"
        },
        {
          "internalType": "string",
          "name": "rating",
          "type": "string"
        },
        {
          "internalType": "uint256",
          "name": "timestamp",
          "type": "uint256"
        }
      ],
      "stateMutability": "view",
      "type": "function"
    },
    {
      "inputs": [],
      "name": "getFunctionsConfig",
      "outputs": [
        {
          "internalType": "address",
          "name": "router",
          "type": "address"
        },
        {
          "internalType": "uint64",
          "name": "subscriptionId",
          "type": "uint64"
        },
        {
          "internalType": "uint32",
          "name": "gasLimitConfig",
          "type": "uint32"
        },
        {
          "internalType": "bytes32",
          "name": "donIdConfig",
          "type": "bytes32"
        }
      ],
      "stateMutability": "view",
      "type": "function"
    },
    {
      "inputs": [],
      "name": "getLastFunctionsResponse",
      "outputs": [
        {
          "internalType": "bytes32",
          "name": "lastRequestId",
          "type": "bytes32"
        },
        {
          "internalType": "bytes",
          "name": "lastResponse",
          "type": "bytes"
        },
        {
          "internalType": "bytes",
          "name": "lastError",
          "type": "bytes"
        }
      ],
      "stateMutability": "view",
      "type": "function"
    },
    {
      "inputs": [
        {
          "internalType": "bytes32",
          "name": "requestId",
          "type": "bytes32"
        },
        {
          "internalType": "bytes",
          "name": "response",
          "type": "bytes"
        },
        {
          "internalType": "bytes",
          "name": "err",
          "type": "bytes"
        }
      ],
      "name": "handleOracleFulfillment",
      "outputs": [],
      "stateMutability": "nonpayable",
      "type": "function"
    },
    {
      "inputs": [],
      "name": "i_functionsSubscriptionId",
      "outputs": [
        {
          "internalType": "uint64",
          "name": "",
          "type": "uint64"
        }
      ],
      "stateMutability": "view",
      "type": "function"
    },
    {
      "inputs": [
        {
          "internalType": "uint256",
          "name": "",
          "type": "uint256"
        }
      ],
      "name": "isValid",
      "outputs": [
        {
          "internalType": "bool",
          "name": "",
          "type": "bool"
        }
      ],
      "stateMutability": "view",
      "type": "function"
    },
    {
      "inputs": [
        {
          "internalType": "uint256",
          "name": "",
          "type": "uint256"
        }
      ],
      "name": "isVerified",
      "outputs": [
        {
          "internalType": "bool",
          "name": "",
          "type": "bool"
        }
      ],
      "stateMutability": "view",
      "type": "function"
    },
    {
      "inputs": [
        {
          "internalType": "uint256",
          "name": "",
          "type": "uint256"
        }
      ],
      "name": "riskScore",
      "outputs": [
        {
          "internalType": "uint256",
          "name": "",
          "type": "uint256"
        }
      ],
      "stateMutability": "view",
      "type": "function"
    },
    {
      "inputs": [],
      "name": "s_lastError",
      "outputs": [
        {
          "internalType": "bytes",
          "name": "",
          "type": "bytes"
        }
      ],
      "stateMutability": "view",
      "type": "function"
    },
    {
      "inputs": [],
      "name": "s_lastRequestId",
      "outputs": [
        {
          "internalType": "bytes32",
          "name": "",
          "type": "bytes32"
        }
      ],
      "stateMutability": "view",
      "type": "function"
    },
    {
      "inputs": [],
      "name": "s_lastResponse",
      "outputs": [
        {
          "internalType": "bytes",
          "name": "",
          "type": "bytes"
        }
      ],
      "stateMutability": "view",
      "type": "function"
    },
    {
      "inputs": [
        {
          "internalType": "address",
          "name": "_coreContract",
          "type": "address"
        }
      ],
      "name": "setCoreContract",
      "outputs": [],
      "stateMutability": "nonpayable",
      "type": "function"
    },
    {
      "inputs": [
        {
          "internalType": "uint256",
          "name": "invoiceId",
          "type": "uint256"
        },
        {
          "internalType": "string",
          "name": "documentHash",
          "type": "string"
        },
        {
          "internalType": "string",
          "name": "commodity",
          "type": "string"
        },
        {
          "internalType": "uint256",
          "name": "amount",
          "type": "uint256"
        },
        {
          "internalType": "string",
          "name": "supplierCountry",
          "type": "string"
        },
        {
          "internalType": "string",
          "name": "buyerCountry",
          "type": "string"
        },
        {
          "internalType": "string",
          "name": "exporterName",
          "type": "string"
        },
        {
          "internalType": "string",
          "name": "buyerName",
          "type": "string"
        }
      ],
      "name": "startDocumentVerification",
      "outputs": [
        {
          "internalType": "bytes32",
          "name": "",
          "type": "bytes32"
        }
      ],
      "stateMutability": "nonpayable",
      "type": "function"
    },
    {
      "inputs": [],
      "name": "testDirectRequest",
      "outputs": [
        {
          "internalType": "bytes32",
          "name": "",
          "type": "bytes32"
        }
      ],
      "stateMutability": "nonpayable",
      "type": "function"
    },
    {
      "inputs": [
        {
          "internalType": "uint256",
          "name": "",
          "type": "uint256"
        }
      ],
      "name": "verificationDetails",
      "outputs": [
        {
          "internalType": "string",
          "name": "",
          "type": "string"
        }
      ],
      "stateMutability": "view",
      "type": "function"
    },
    {
      "inputs": [
        {
          "internalType": "uint256",
          "name": "",
          "type": "uint256"
        }
      ],
      "name": "verificationTimestamp",
      "outputs": [
        {
          "internalType": "uint256",
          "name": "",
          "type": "uint256"
        }
      ],
      "stateMutability": "view",
      "type": "function"
    }
  ],
  "bytecode": "0x60c0346100d3576001600160401b0390601f62002bcc38819003918201601f1916830191848311848410176100d8578084926020946040528339810103126100d3575190811681036100d35773b83e47c2bc239b3bf370bc41e1459a34b41238d0608052620493e063ffffffff1960005416176000557f66756e2d657468657265756d2d7365706f6c69612d310000000000000000000060015560a052604051612add9081620000ef82396080518181816102b801526112a4015260a0518181816103f3015281816108310152610e310152f35b600080fd5b634e487b7160e01b600052604160045260246000fdfe6080604052600436101561001257600080fd5b60003560e01c80630ca76175146101775780632d0c64431461017257806337b6d96b1461016d5780633944ea3a146101685780634b0795a8146101635780635f7a87ed1461015e578063662a61f3146101595780636cb6d327146101545780636e246ecb1461014f5780636e74336b1461014a5780637b4ca0e8146101455780638cb1cbcd1461014057806396f8a47d1461013b578063b1e2174914610136578063b53632c214610131578063bb954bcc1461012c578063c626669314610127578063e80db5db14610122578063f11aa6531461011d578063f577a50014610118578063f68016b7146101135763fb07b7111461010e57600080fd5b610f8f565b610f6b565b610f3a565b610f04565b610edb565b610e55565b610e11565b610de5565b610dc7565b610cfa565b610c6b565b610c0b565b61088e565b610862565b6107ed565b6107b0565b6106ad565b610691565b610661565b61045f565b610334565b610269565b634e487b7160e01b600052604160045260246000fd5b604081019081106001600160401b038211176101ad57604052565b61017c565b6001600160401b0381116101ad57604052565b6102e081019081106001600160401b038211176101ad57604052565b90601f801991011681019081106001600160401b038211176101ad57604052565b6001600160401b0381116101ad57601f01601f191660200190565b81601f820112156102645780359061023482610202565b9261024260405194856101e1565b8284526020838301011161026457816000926020809301838601378301015290565b600080fd5b34610264576060366003190112610264576004356001600160401b036024358181116102645761029d90369060040161021d565b90604435908111610264576102b690369060040161021d565b7f00000000000000000000000000000000000000000000000000000000000000006001600160a01b03163303610317576102f0918361259e565b7f85e1543bf2f84fe80c6badbce3648c8539ad1df4d2b3d822938ca0538be727e6600080a2005b60405163c6829f8360e01b8152600490fd5b600091031261026457565b346102645760008060031936011261045c5761034e61111a565b9061036061035a6108ac565b83611667565b60405161036c81610192565b60018152815b60208082101561038d57906060602092828501015201610372565b7feae102016b8d00bb38f05fd3f3c3c461f935624c845f30452a4799b426348bac8461041d6104186103e4896103df896103c561217b565b6103ce826111bb565b526103d8816111bb565b5082611690565b611494565b835463ffffffff165b600154917f00000000000000000000000000000000000000000000000000000000000000009061124c565b600355565b61043d6104366003546000526006602052604060002090565b6103e79055565b610458600354806103e760405195858796a382526020820190565b0390f35b80fd5b34610264576020366003190112610264576004356000526007602052602060ff604060002054166040519015158152f35b90600182811c921680156104c0575b60208310146104aa57565b634e487b7160e01b600052602260045260246000fd5b91607f169161049f565b60405190600082600454916104de83610490565b808352926001908181169081156105665750600114610507575b50610505925003836101e1565b565b6004600090815291507f8a35acfbc15ff81a39ae7d344fd709f28e8600b4aa8c65c6b64bfe7fe36bd19b5b84831061054b57506105059350508101602001386104f8565b81935090816020925483858a01015201910190918592610532565b90506020925061050594915060ff191682840152151560051b820101386104f8565b604051906000826005549161059c83610490565b8083529260019081811690811561056657506001146105c25750610505925003836101e1565b6005600090815291507f036b6384b5eca791c62761152d0c79bb0604c104a5fb6f4eb0703f3154bb3db05b84831061060657506105059350508101602001386104f8565b81935090816020925483858a010152019101909185926105ed565b919082519283825260005b84811061064d575050826000602080949584010152601f8019910116010190565b60208183018101518483018201520161062c565b346102645760003660031901126102645761045861067d6104ca565b604051918291602083526020830190610621565b346102645760003660031901126102645761045861067d610588565b34610264576000366003190112610264576003546106c96104ca565b906104586106d5610588565b6106f16040519485948552606060208601526060850190610621565b908382036040850152610621565b906000929180549161071083610490565b9182825260019384811690816000146107725750600114610732575b50505050565b90919394506000526020928360002092846000945b83861061075e57505050500101903880808061072c565b805485870183015294019385908201610747565b9294505050602093945060ff191683830152151560051b0101903880808061072c565b906105056107a992604051938480926106ff565b03836101e1565b3461026457602036600319011261026457600435600052600a6020526104586107e661067d6040600020604051928380926106ff565b03826101e1565b3461026457600036600319011261026457608063ffffffff600054166001546040519173b83e47c2bc239b3bf370bc41e1459a34b41238d083526001600160401b037f000000000000000000000000000000000000000000000000000000000000000016602084015260408301526060820152f35b346102645760203660031901126102645760043560005260066020526020604060002054604051908152f35b34610264576000366003190112610264576020600154604051908152f35b604051906108b9826101c5565b6102b582527473756c742e637265646974526174696e677d60293b60581b6102c0837f636f6e737420696e766f6963654964203d20617267735b305d3b636f6e73742060208201527f646f63756d656e7448617368203d20617267735b315d3b636f6e737420636f6d60408201527f6d6f64697479203d20617267735b325d3b636f6e737420616d6f756e74203d2060608201527f617267735b335d3b636f6e737420737570706c696572436f756e747279203d2060808201527f617267735b345d3b636f6e7374206275796572436f756e747279203d2061726760a08201527f735b355d3b636f6e73742072657175657374203d2046756e6374696f6e732e6d60c08201527f616b654874747052657175657374287b75726c3a202768747470733a2f2f656160e08201527f726e782d766572696669636174696f6e2d6170692e6f6e72656e6465722e636f6101008201527f6d2f6170692f76312f766572696669636174696f6e2f7665726966792d6d696e6101208201527f696d616c272c6d6574686f643a2027504f5354272c686561646572733a207b276101408201527f436f6e74656e742d54797065273a20276170706c69636174696f6e2f6a736f6e6101608201527f272c2027582d4150492d4b6579273a20736563726574732e6170694b65797d2c6101808201527f646174613a207b696e766f69636549642c20646f63756d656e74486173682c206101a08201527f636f6d6d6f646974792c20616d6f756e743a207061727365496e7428616d6f756101c08201527f6e74292c20737570706c696572436f756e7472792c206275796572436f756e746101e08201527f72797d7d293b636f6e737420726573706f6e7365203d206177616974207265716102008201527f756573743b69662028726573706f6e73652e6572726f7229207468726f7720456102208201527f72726f722827415049204572726f7227293b636f6e737420726573756c74203d6102408201527f20726573706f6e73652e646174613b72657475726e2046756e6374696f6e732e6102608201527f656e636f6465537472696e672860247b726573756c742e697356616c6964203f6102808201527f2031203a20307d2c247b726573756c742e7269736b53636f72657d2c247b72656102a08201520152565b346102645760003660031901126102645761045861067d6108ac565b96959490610c669360a09593610c539215158a52151560208a015260c060408a015260c0890190610621565b9160608801528682036080880152610621565b930152565b34610264576020806003193601126102645760043590610458600083815260078352604060ff81832054169360088152610ce3610cef60ff848620541697600b8452610cea610cd6868089209860098852600a8282205498522092600052600c602052604060002090565b54968651948580926106ff565b03846101e1565b610795565b925196879687610c27565b3461026457610100366003190112610264576024356001600160401b0380821161026457610d2d6004923690840161021d565b9160443582811161026457610d45903690830161021d565b9060843583811161026457610d5d903690830161021d565b9060a43584811161026457610d75903690830161021d565b9260c43585811161026457610d8d903690840161021d565b5060e4359485116102645761045895610dac610db7963690850161021d565b506064359235610fbb565b6040519081529081906020820190565b34610264576000366003190112610264576020600354604051908152f35b346102645760203660031901126102645760043560005260096020526020604060002054604051908152f35b346102645760003660031901126102645760206040516001600160401b037f0000000000000000000000000000000000000000000000000000000000000000168152f35b34610264576020366003190112610264576004356001600160a01b038181169182900361026457600254908116610e96576001600160a01b03191617600255005b60405162461bcd60e51b815260206004820152601960248201527f436f726520636f6e747261637420616c726561647920736574000000000000006044820152606490fd5b34610264576000366003190112610264576002546040516001600160a01b039091168152602090f35b3461026457602036600319011261026457600435600052600b6020526104586107e661067d6040600020604051928380926106ff565b34610264576020366003190112610264576004356000526008602052602060ff604060002054166040519015158152f35b3461026457600036600319011261026457602063ffffffff60005416604051908152f35b3461026457602036600319011261026457600435600052600c6020526020604060002054604051908152f35b94929391909360018060a01b036002541633036110e05761109b946104189461108d946110526103df94610fed61111a565b96610fff610ff96108ac565b89611667565b611007611163565b956110118d6129dc565b61101a886111bb565b52611024876111bb565b5061102e876111cd565b52611038866111cd565b50611042866111dd565b5261104c856111dd565b506129dc565b61105b846111ed565b52611065836111ed565b5061106f836111fd565b52611079826111fd565b506110838261120d565b526103d88161120d565b60005463ffffffff166103ed565b806110b26003546000526006602052604060002090565b5560035480917feae102016b8d00bb38f05fd3f3c3c461f935624c845f30452a4799b426348bac600080a390565b60405162461bcd60e51b815260206004820152601260248201527113db9b1e4818dbdc994818dbdb9d1c9858dd60721b6044820152606490fd5b6040519060e082018281106001600160401b038211176101ad57604052606060c08360008152600060208201526000604082015282808201528260808201528260a08201520152565b6040519060e082018281106001600160401b038211176101ad57604052600682528160005b60c08110611194575050565b806060602080938501015201611188565b634e487b7160e01b600052603260045260246000fd5b8051156111c85760200190565b6111a5565b8051600110156111c85760400190565b8051600210156111c85760600190565b8051600310156111c85760800190565b8051600410156111c85760a00190565b8051600510156111c85760c00190565b80518210156111c85760209160051b010190565b90816020910312610264575190565b6040513d6000823e3d90fd5b92906020926001600160401b039263ffffffff61128b604051978896879663230e93b160e11b885216600487015260a0602487015260a4860190610621565b60016044860152921660648401526084830152038160007f00000000000000000000000000000000000000000000000000000000000000006001600160a01b03165af190811561133557600091611307575b50807f1131472297a800fee664d1d89cfa8f7676ff07189ecc53f80bbb5f4969099db8600080a290565b611328915060203d811161132e575b61132081836101e1565b810190611231565b386112dd565b503d611316565b611240565b6040519061134782610192565b600c82526b31b7b232a637b1b0ba34b7b760a11b6020830152565b634e487b7160e01b600052602160045260246000fd5b6003111561138257565b611362565b6040519061139482610192565b60088252676c616e677561676560c01b6020830152565b6001111561138257565b604051906113c282610192565b6006825265736f7572636560d01b6020830152565b604051906113e482610192565b60048252636172677360e01b6020830152565b634e487b7160e01b600052601160045260246000fd5b600019811461141c5760010190565b6113f7565b6040519061142e82610192565b600f82526e39b2b1b932ba39a637b1b0ba34b7b760891b6020830152565b6040519061145982610192565b60078252667365637265747360c81b6020830152565b6040519061147c82610192565b600982526862797465734172677360b81b6020830152565b61149c6116c9565b906114ae6114a861133a565b83611e3c565b6114cb81516114bc81611378565b6114c581611378565b836117b0565b6114d66114a8611387565b6114f060408201516114e7816113ab565b6114c5816113ab565b6114fb6114a86113b5565b611509606082015183611e3c565b60a0810180515161160e575b50608081019081515161158e575b60c0915001805151611536575b50515190565b916115426114a861146f565b61154b82611ec0565b60005b8351805182101561157b579061157161156a826115769461121d565b5185611d87565b61140d565b61154e565b5050915061158881611f4c565b38611530565b60208101805161159d81611378565b6115a681611378565b156115fc5760c0926115df6115f7926115c66115c0611421565b88611e3c565b516115d081611378565b6115d981611378565b866117b0565b6115f06115ea61144c565b86611e3c565b5184611d87565b611523565b60405163a80d31f760e01b8152600490fd5b9261162061161a6113d7565b84611e3c565b61162983611ec0565b60005b8451805182101561165457906115716116488261164f9461121d565b5186611e3c565b61162c565b5050925061166182611f4c565b38611515565b81511561167e576000808252604082015260600152565b6040516322ce3edd60e01b8152600490fd5b81511561169d5760a00152565b60405163fe936cb760e01b8152600490fd5b604051906116bc82610192565b6000602083606081520152565b6040516116d581610192565b6116dd6116af565b80825260208201600081526116f06116af565b506101006020830152604051809252600082526101208201918210610264576000916040525290565b601f1981019190821161141c57565b9190820391821161141c57565b906020820180921161141c57565b603001908160301161141c57565b9190820180921161141c57565b906117676116af565b50601f811680611796575b50806020830152604051908183526000825281016020019081106102645760405290565b6020036020811161141c57810180911161141c5738611772565b908151916117bc6116af565b50825151600181019081811161141c576020850151811015611815575b60c26020610505965192830101538051821161180d575b50506040519160208301526020825261180882610192565b611d87565b5238806117f0565b8160011b948286046002148315171561141c576020816118476105059861184060c29551918461175e565b5082611ccf565b50965050506117d9565b908160011b918083046002149015171561141c57565b61186f6116af565b50805151600181019081811161141c5760208301518110156118a8575b605b602084519283010153805182116118a457505090565b5290565b8160011b8281046002148315171561141c576118d1906118ca8551918661175e565b5084611ccf565b5061188c565b6118df6116af565b50805151600181019081811161141c576020830151811015611914575b605a602084519283010153805182116118a457505090565b8160011b8281046002148315171561141c57611936906118ca8551918661175e565b506118fc565b6119446116af565b50805151600181019081811161141c576020830151811015611979575b6059602084519283010153805182116118a457505090565b8160011b8281046002148315171561141c5761199b906118ca8551918661175e565b50611961565b6119a96116af565b50805151600181019081811161141c5760208301518110156119de575b6058602084519283010153805182116118a457505090565b8160011b8281046002148315171561141c57611a00906118ca8551918661175e565b506119c6565b611a0e6116af565b50805151600181019081811161141c576020830151811015611a43575b607b602084519283010153805182116118a457505090565b8160011b8281046002148315171561141c57611a65906118ca8551918661175e565b50611a2b565b611a736116af565b50805151600181019081811161141c576020830151811015611aa8575b607a602084519283010153805182116118a457505090565b8160011b8281046002148315171561141c57611aca906118ca8551918661175e565b50611a90565b611ad86116af565b50805151600181019081811161141c576020830151811015611b0d575b6079602084519283010153805182116118a457505090565b8160011b8281046002148315171561141c57611b2f906118ca8551918661175e565b50611af5565b611b3d6116af565b50805151600181019081811161141c576020830151811015611b72575b6078602084519283010153805182116118a457505090565b8160011b8281046002148315171561141c57611b94906118ca8551918661175e565b50611b5a565b90611ba36116af565b50815151600181019182821161141c576020840151821015611bd6575b602084519283010153805182116118a457505090565b8260011b8381046002148415171561141c57611bff90611bf88651918761175e565b5085611ccf565b50611bc0565b90611c128251918361175e565b50611c1b6116af565b50805190611c276116af565b50611c358151831115611d80565b82515192611c438385611751565b916020928284809401518211611cb8575b5183815197820101968211611cb0575b505001915b81811015611c8a5760001991036101000a0190811990511690825116179052565b9192611ca5611c9f611cab9286518152611735565b94611735565b92611719565b611c69565b523880611c64565b611cca611cc483611851565b82611c05565b611c54565b90611cd86116af565b508051611ce36116af565b50611cf18251821115611d80565b82515191611cff8284611751565b6020918291828701518111611d69575b865183815197820101968211611d61575b505001915b81811015611d475760001991036101000a019081199051169082511617905290565b9192611ca5611c9f611d5c9286518152611735565b611d25565b523880611d20565b611d7b611d7582611851565b88611c05565b611d0f565b1561026457565b8151611dbe9291906001600160401b0381169060178211611dc157611db69150604060ff845192161790611b9a565b505b51611ccf565b50565b5060ff8111611de657611de090611dd883516119a1565b508251612115565b50611db8565b61ffff8111611e0557611de090611dfd835161193c565b5082516120ae565b63ffffffff8111611e2657611de090611e1e83516118d7565b508251612045565b611de090611e348351611867565b508251611fd9565b8151611dbe9291906001600160401b0381169060178211611e6b57611db69150606060ff845192161790611b9a565b5060ff8111611e8257611de090611dd88351611b35565b61ffff8111611e9957611de090611dfd8351611ad0565b63ffffffff8111611eb257611de090611e1e8351611a6b565b611de090611e348351611a06565b805190611ecb6116af565b50815151600181019081811161141c576020840151811015611f19575b609f6020809551928301015380518211611f11575b5050018051906001820180921161141c5752565b523880611efd565b8160011b938285046002148315171561141c57602081611f428297611840609f9551918461175e565b5095505050611ee8565b805190611f576116af565b50815151600181019081811161141c576020840151811015611fa6575b60ff6020809551928301015380518211611f9e575b505001805160001981019190821161141c5752565b523880611f89565b8160011b938285046002148315171561141c57602081611fcf829761184060ff9551918461175e565b5095505050611f74565b90611fe26116af565b5081515180600801918260081161141c5760208401518311612024575b6008845192830101906001600160401b0319825116179052805182116118a457505090565b8260011b8381046002148415171561141c576120409085611c05565b611fff565b9061204e6116af565b5081515180600401918260041161141c576020840151831161208d575b60048451928301019063ffffffff19825116179052805182116118a457505090565b8260011b8381046002148415171561141c576120a99085611c05565b61206b565b906120b76116af565b5081515180600201918260021161141c57602084015183116120f4575b60028451928301019061ffff19825116179052805182116118a457505090565b8260011b8381046002148415171561141c576121109085611c05565b6120d4565b9061211e6116af565b5081515180600101918260011161141c576020840151831161215a575b60018451928301019060ff19825116179052805182116118a457505090565b8260011b8381046002148415171561141c576121769085611c05565b61213b565b6040519061218882610192565b600382526239393960e81b6020830152565b8181106121a5575050565b6000815560010161219a565b90601f81116121be575050565b61050591600052601f6020600020910160051c81019061219a565b90601f82116121e6575050565b6105059160046000527f8a35acfbc15ff81a39ae7d344fd709f28e8600b4aa8c65c6b64bfe7fe36bd19b906020601f840160051c83019310612230575b601f0160051c019061219a565b9091508190612223565b90601f8211612247575050565b6105059160056000527f036b6384b5eca791c62761152d0c79bb0604c104a5fb6f4eb0703f3154bb3db0906020601f840160051c8301931061223057601f0160051c019061219a565b9081516001600160401b0381116101ad576122b5816122b0600454610490565b6121d9565b602080601f83116001146122f157508192936000926122e6575b50508160011b916000199060031b1c191617600455565b0151905038806122cf565b90601f1983169461232460046000527f8a35acfbc15ff81a39ae7d344fd709f28e8600b4aa8c65c6b64bfe7fe36bd19b90565b926000905b878210612361575050836001959610612348575b505050811b01600455565b015160001960f88460031b161c1916905538808061233d565b80600185968294968601518155019501930190612329565b9081516001600160401b0381116101ad5761239e81612399600554610490565b61223a565b602080601f83116001146123da57508192936000926123cf575b50508160011b916000199060031b1c191617600555565b0151905038806123b8565b90601f1983169461240d60056000527f036b6384b5eca791c62761152d0c79bb0604c104a5fb6f4eb0703f3154bb3db090565b926000905b87821061244a575050836001959610612431575b505050811b01600555565b015160001960f88460031b161c19169055388080612426565b80600185968294968601518155019501930190612412565b909161247961248793604084526040840190610621565b916020818403910152610621565b90565b61249d6124978254610490565b826121b1565b600a6422a92927a960d91b019055565b6124ba6124978254610490565b601a6c29b2b93b34b1b29032b93937b960991b019055565b604051906124df82610192565b600e82526d22697356616c6964223a7472756560901b6020830152565b6125096124978254610490565b7f4561726e5820766572696669636174696f6e206661696c6564000000000000329055565b61253b6124978254610490565b6002604160f81b019055565b6125546124978254610490565b7f4561726e5820766572696669636174696f6e20706173736564000000000000329055565b90926080926124879594835215156020830152604082015281606082015201906106ff565b6125f8906125ab83612290565b6125b484612379565b807ff0f413c077269966d7e2dabc8eb21ba825fef41a93078a6ae69923b9c718f444604051806125e5888883612462565b0390a26000526006602052604060002090565b549182156128fb57612624612617846000526007602052604060002090565b805460ff19166001179055565b4261263984600052600c602052604060002090565b555115806128f1575b1561284f57612659906126536124d2565b90612911565b156127d457612675612617826000526008602052604060002090565b61269261268c826000526009602052604060002090565b60199055565b6126ae6126a982600052600a602052604060002090565b61252e565b6126ca6126c582600052600b602052604060002090565b612547565b807f08feababa7031f6d52e6982b68e59ff4cf338649f07987883f6c0b636c49b12361270a612703836000526008602052604060002090565b5460ff1690565b61271e836000526009602052604060002090565b54604080519215158352602083019190915290a26002546001600160a01b03169081612748575050565b61275f612703826000526008602052604060002090565b91612774826000526009602052604060002090565b549061278a83600052600a602052604060002090565b93813b1561026457600080946127b66040519788968795869463510ec4d160e11b865260048601612579565b03925af16127c15750565b806127ce610505926101b2565b80610329565b6127f56127eb826000526008602052604060002090565b805460ff19169055565b61281261280c826000526009602052604060002090565b60639055565b61282e61282982600052600a602052604060002090565b61248a565b61284a61284582600052600b602052604060002090565b6124fc565b6126ca565b506128676127eb826000526008602052604060002090565b61287e61280c826000526009602052604060002090565b61289561282982600052600a602052604060002090565b6128b16128ac82600052600b602052604060002090565b6124ad565b7f08feababa7031f6d52e6982b68e59ff4cf338649f07987883f6c0b636c49b123604051806128ec8190606360206040840193600081520152565b0390a2565b5080511515612642565b505050565b9081518110156111c8570160200190565b9081518151116129d5576000905b61292c8351825190611728565b82116129cd5760019260005b82518110156129c3576129656129576129518387611751565b84612900565b516001600160f81b03191690565b6129826129756129578487612900565b6001600160f81b03191690565b6001600160f81b0319909116036129a15761299c9061140d565b612938565b5092509060005b6129bb576129b59061140d565b9061291f565b505050600190565b50929190916129a8565b505050600090565b5050600090565b8015612a8957806000908282935b612a7557506129f883610202565b92612a0660405194856101e1565b80845281601f19612a1683610202565b013660208701375b612a285750505090565b600019810190811161141c578091600a91612a6c612a63612a53612a4d868606611743565b60ff1690565b60f81b6001600160f81b03191690565b861a9187612900565b53049081612a1e565b92612a81600a9161140d565b9304806129ea565b50604051612a9681610192565b60018152600360fc1b60208201529056fea264697066735822122088e8a4ffe8de3ecada5f036cbd69150b5941028ee3df556ab6625697daf6a13564736f6c63430008140033",
  "linkReferences": {},
  "deployedLinkReferences": {}
}