{
  "_format": "hh-sol-artifact-1",
  "contractName": "EarnXInvestmentModule",
  "sourceName": "contracts/EarnXInvestmentModule.sol",
  "abi": [
    {
      "inputs": [
        {
          "internalType": "address",
          "name": "_usdcToken",
          "type": "address"
        }
      ],
      "stateMutability": "nonpayable",
      "type": "constructor"
    },
    {
      "anonymous": false,
      "inputs": [
        {
          "indexed": true,
          "internalType": "uint256",
          "name": "invoiceId",
          "type": "uint256"
        },
        {
          "indexed": true,
          "internalType": "address",
          "name": "investor",
          "type": "address"
        },
        {
          "indexed": false,
          "internalType": "uint256",
          "name": "amount",
          "type": "uint256"
        },
        {
          "indexed": false,
          "internalType": "uint256",
          "name": "totalFunding",
          "type": "uint256"
        }
      ],
      "name": "InvestmentMade",
      "type": "event"
    },
    {
      "anonymous": false,
      "inputs": [
        {
          "indexed": true,
          "internalType": "uint256",
          "name": "invoiceId",
          "type": "uint256"
        },
        {
          "indexed": true,
          "internalType": "address",
          "name": "investor",
          "type": "address"
        },
        {
          "indexed": false,
          "internalType": "uint256",
          "name": "amount",
          "type": "uint256"
        }
      ],
      "name": "InvestmentRefunded",
      "type": "event"
    },
    {
      "anonymous": false,
      "inputs": [
        {
          "indexed": true,
          "internalType": "uint256",
          "name": "invoiceId",
          "type": "uint256"
        },
        {
          "indexed": false,
          "internalType": "uint256",
          "name": "totalAmount",
          "type": "uint256"
        },
        {
          "indexed": false,
          "internalType": "uint256",
          "name": "profit",
          "type": "uint256"
        }
      ],
      "name": "ReturnsDistributed",
      "type": "event"
    },
    {
      "inputs": [
        {
          "internalType": "uint256",
          "name": "invoiceId",
          "type": "uint256"
        },
        {
          "internalType": "address",
          "name": "investor",
          "type": "address"
        },
        {
          "internalType": "uint256",
          "name": "aprBasisPoints",
          "type": "uint256"
        },
        {
          "internalType": "uint256",
          "name": "timeElapsed",
          "type": "uint256"
        }
      ],
      "name": "calculateExpectedReturn",
      "outputs": [
        {
          "internalType": "uint256",
          "name": "expectedReturn",
          "type": "uint256"
        }
      ],
      "stateMutability": "view",
      "type": "function"
    },
    {
      "inputs": [],
      "name": "coreContract",
      "outputs": [
        {
          "internalType": "address",
          "name": "",
          "type": "address"
        }
      ],
      "stateMutability": "view",
      "type": "function"
    },
    {
      "inputs": [
        {
          "internalType": "uint256",
          "name": "amount",
          "type": "uint256"
        }
      ],
      "name": "emergencyWithdraw",
      "outputs": [],
      "stateMutability": "nonpayable",
      "type": "function"
    },
    {
      "inputs": [],
      "name": "getContractBalance",
      "outputs": [
        {
          "internalType": "uint256",
          "name": "",
          "type": "uint256"
        }
      ],
      "stateMutability": "view",
      "type": "function"
    },
    {
      "inputs": [
        {
          "internalType": "uint256",
          "name": "invoiceId",
          "type": "uint256"
        }
      ],
      "name": "getInvestmentInfo",
      "outputs": [
        {
          "internalType": "uint256",
          "name": "totalInvestment",
          "type": "uint256"
        },
        {
          "internalType": "uint256",
          "name": "numInvestors",
          "type": "uint256"
        },
        {
          "internalType": "address[]",
          "name": "investors",
          "type": "address[]"
        }
      ],
      "stateMutability": "view",
      "type": "function"
    },
    {
      "inputs": [
        {
          "internalType": "address",
          "name": "investor",
          "type": "address"
        },
        {
          "internalType": "uint256",
          "name": "invoiceId",
          "type": "uint256"
        }
      ],
      "name": "getInvestorData",
      "outputs": [
        {
          "internalType": "uint256",
          "name": "investmentAmount",
          "type": "uint256"
        }
      ],
      "stateMutability": "view",
      "type": "function"
    },
    {
      "inputs": [
        {
          "internalType": "address",
          "name": "investor",
          "type": "address"
        }
      ],
      "name": "getInvestorInvoices",
      "outputs": [
        {
          "internalType": "uint256[]",
          "name": "",
          "type": "uint256[]"
        }
      ],
      "stateMutability": "view",
      "type": "function"
    },
    {
      "inputs": [],
      "name": "getTotalInvestmentStats",
      "outputs": [
        {
          "internalType": "uint256",
          "name": "totalInvestmentVolume",
          "type": "uint256"
        },
        {
          "internalType": "uint256",
          "name": "totalActiveInvestors",
          "type": "uint256"
        }
      ],
      "stateMutability": "view",
      "type": "function"
    },
    {
      "inputs": [
        {
          "internalType": "uint256",
          "name": "",
          "type": "uint256"
        },
        {
          "internalType": "address",
          "name": "",
          "type": "address"
        }
      ],
      "name": "investments",
      "outputs": [
        {
          "internalType": "uint256",
          "name": "",
          "type": "uint256"
        }
      ],
      "stateMutability": "view",
      "type": "function"
    },
    {
      "inputs": [
        {
          "internalType": "address",
          "name": "",
          "type": "address"
        },
        {
          "internalType": "uint256",
          "name": "",
          "type": "uint256"
        }
      ],
      "name": "investorInvoices",
      "outputs": [
        {
          "internalType": "uint256",
          "name": "",
          "type": "uint256"
        }
      ],
      "stateMutability": "view",
      "type": "function"
    },
    {
      "inputs": [
        {
          "internalType": "uint256",
          "name": "",
          "type": "uint256"
        },
        {
          "internalType": "uint256",
          "name": "",
          "type": "uint256"
        }
      ],
      "name": "invoiceInvestors",
      "outputs": [
        {
          "internalType": "address",
          "name": "",
          "type": "address"
        }
      ],
      "stateMutability": "view",
      "type": "function"
    },
    {
      "inputs": [
        {
          "internalType": "uint256",
          "name": "invoiceId",
          "type": "uint256"
        },
        {
          "internalType": "address",
          "name": "investor",
          "type": "address"
        },
        {
          "internalType": "uint256",
          "name": "amount",
          "type": "uint256"
        },
        {
          "internalType": "uint256",
          "name": "targetFunding",
          "type": "uint256"
        },
        {
          "internalType": "uint256",
          "name": "currentFunding",
          "type": "uint256"
        },
        {
          "internalType": "address",
          "name": "supplier",
          "type": "address"
        }
      ],
      "name": "makeInvestment",
      "outputs": [
        {
          "internalType": "uint256",
          "name": "newTotalFunding",
          "type": "uint256"
        }
      ],
      "stateMutability": "nonpayable",
      "type": "function"
    },
    {
      "inputs": [
        {
          "internalType": "uint256",
          "name": "invoiceId",
          "type": "uint256"
        },
        {
          "internalType": "address",
          "name": "buyer",
          "type": "address"
        },
        {
          "internalType": "uint256",
          "name": "repaymentAmount",
          "type": "uint256"
        },
        {
          "internalType": "uint256",
          "name": "principalAmount",
          "type": "uint256"
        }
      ],
      "name": "processRepayment",
      "outputs": [
        {
          "internalType": "uint256",
          "name": "totalProfit",
          "type": "uint256"
        }
      ],
      "stateMutability": "nonpayable",
      "type": "function"
    },
    {
      "inputs": [
        {
          "internalType": "uint256",
          "name": "invoiceId",
          "type": "uint256"
        }
      ],
      "name": "refundInvestors",
      "outputs": [],
      "stateMutability": "nonpayable",
      "type": "function"
    },
    {
      "inputs": [
        {
          "internalType": "address",
          "name": "_coreContract",
          "type": "address"
        }
      ],
      "name": "setCoreContract",
      "outputs": [],
      "stateMutability": "nonpayable",
      "type": "function"
    },
    {
      "inputs": [
        {
          "internalType": "uint256",
          "name": "",
          "type": "uint256"
        }
      ],
      "name": "totalInvestments",
      "outputs": [
        {
          "internalType": "uint256",
          "name": "",
          "type": "uint256"
        }
      ],
      "stateMutability": "view",
      "type": "function"
    },
    {
      "inputs": [
        {
          "internalType": "uint256",
          "name": "invoiceId",
          "type": "uint256"
        },
        {
          "internalType": "address",
          "name": "supplier",
          "type": "address"
        },
        {
          "internalType": "uint256",
          "name": "amount",
          "type": "uint256"
        }
      ],
      "name": "transferFundsToSupplier",
      "outputs": [
        {
          "internalType": "bool",
          "name": "",
          "type": "bool"
        }
      ],
      "stateMutability": "nonpayable",
      "type": "function"
    },
    {
      "inputs": [],
      "name": "usdcToken",
      "outputs": [
        {
          "internalType": "contract MockUSDC",
          "name": "",
          "type": "address"
        }
      ],
      "stateMutability": "view",
      "type": "function"
    }
  ],
  "bytecode": "0x60a03461009657601f61122938819003918201601f19168301916001600160401b0383118484101761009b5780849260209460405283398101031261009657516001600160a01b038116908190036100965760805260405161117790816100b282396080518181816102ae0152818161039c0152818161070b01528181610904015281816109d001528181610d8f0152610ec90152f35b600080fd5b634e487b7160e01b600052604160045260246000fdfe6080604052600436101561001257600080fd5b60003560e01c80630cef37e514610e445780631028f52614610dbe57806311eac85514610d7957806338a7b16714610d315780633dd8eecc14610a825780634e7f7a7714610a605780635312ea8e146109795780636f9fb98a146108d857806371a316be1461084857806375a43620146107f65780639ee987b214610653578063a945c5c314610627578063ac46e379146105cf578063b11b32d214610587578063b18ce24f1461024a578063bee0649e14610196578063c6266693146101105763e80db5db146100e257600080fd5b3461010b57600036600319011261010b576000546040516001600160a01b039091168152602090f35b600080fd5b3461010b57602036600319011261010b57610129610fb7565b600054906001600160a01b0390818316610151576001600160a01b0319909216911617600055005b60405162461bcd60e51b815260206004820152601960248201527f436f726520636f6e747261637420616c726561647920736574000000000000006044820152606490fd5b3461010b5760208060031936011261010b576001600160a01b036101b8610fb7565b1660005260048152604060002060405190818382549182815201908192600052846000209060005b868282106102365786866101f682880383611077565b604051928392818401908285525180915260408401929160005b82811061021f57505050500390f35b835185528695509381019392810192600101610210565b8354855290930192600192830192016101e0565b3461010b5761025836610fcd565b9161026e60018060a01b03600054163314611029565b8115610538576040516323b872dd60e01b81526001600160a01b0391821660048201523060248201526044810183905290602090829060649082906000907f0000000000000000000000000000000000000000000000000000000000000000165af190811561046e57600091610519575b50156104e1578260005260026020526102fb60406000206110b1565b91808203928284116104cb5760005b8151811015610490576001600160a01b03610325828461111a565b51169086600052600160205260406000208260005260205260406000205480610359575b50610354915061110b565b61030a565b610363908661112e565b841561047a5760405163a9059cbb60e01b81526001600160a01b03841660048201529085900460248201526020818060448101038160007f00000000000000000000000000000000000000000000000000000000000000006001600160a01b03165af190811561046e5760009161043f575b501561040157610354918760005260016020526040600020906000526020526000604081205587610349565b60405162461bcd60e51b815260206004820152601660248201527514995d1d5c9b881d1c985b9cd9995c8819985a5b195960521b6044820152606490fd5b610461915060203d602011610467575b6104598183611077565b810190611099565b886103d5565b503d61044f565b6040513d6000823e3d90fd5b634e487b7160e01b600052601260045260246000fd5b602085877f104d340153d64ef2be46b9e7b5bb20bfce2392b3f9265d6e8264951595adf73660408881519081528486820152a2604051908152f35b634e487b7160e01b600052601160045260246000fd5b60405162461bcd60e51b815260206004820152601060248201526f14995c185e5b595b9d0819985a5b195960821b6044820152606490fd5b610532915060203d602011610467576104598183611077565b846102df565b60405162461bcd60e51b815260206004820152602160248201527f52657061796d656e7420616d6f756e74206d75737420626520706f73697469766044820152606560f81b6064820152608490fd5b3461010b57604036600319011261010b576105a0610fa1565b600435600052600160205260406000209060018060a01b03166000526020526020604060002054604051908152f35b3461010b57604036600319011261010b576105e8610fb7565b6001600160a01b031660009081526004602052604090208054602435919082101561010b5760209161061991610ffb565b90546040519160031b1c8152f35b3461010b57602036600319011261010b5760043560005260036020526020604060002054604051908152f35b3461010b5760208060031936011261010b5760043560018060a01b0361067e81600054163314611029565b816000526002835261069360406000206110b1565b9160005b83518110156107e657826106ab828661111a565b5116826000526001808752604060002082600052875260406000205490816106df575b5050506106da9061110b565b610697565b60405163a9059cbb60e01b81526001600160a01b038416600482015260248101839052888160448160007f00000000000000000000000000000000000000000000000000000000000000008c165af190811561046e576000916107c9575b5015610794577fc6a2f493a6e1d86aa8d73122837edb3ae830ccf081d0b273177ed6f6ea2b43bd886106da9594938793846000528252604060002085600052825260006040812055604051908152a39086806106ce565b60405162461bcd60e51b815260048101899052600d60248201526c1499599d5b990819985a5b1959609a1b6044820152606490fd5b6107e09150893d8b11610467576104598183611077565b8961073d565b6000828152600386526040812055005b3461010b57604036600319011261010b5760243560043560005260026020526040600020805482101561010b5760209161082f91610ffb565b905460405160039290921b1c6001600160a01b03168152f35b3461010b5760208060031936011261010b576004356000526003815260406000205490600281526040600020906108808254926110b1565b906040519384936060850191855282850152606060408501528251809152816080850193019160005b8281106108b857505050500390f35b83516001600160a01b0316855286955093810193928101926001016108a9565b3461010b57600036600319011261010b576040516370a0823160e01b81523060048201526020816024817f00000000000000000000000000000000000000000000000000000000000000006001600160a01b03165afa801561046e57600090610947575b602090604051908152f35b506020813d8211610971575b8161096060209383611077565b8101031261010b576020905161093c565b3d9150610953565b3461010b57602036600319011261010b576000546001600160a01b03906109a39082163314611029565b60405163a9059cbb60e01b81523360048083019190915235602482015290602090829060449082906000907f0000000000000000000000000000000000000000000000000000000000000000165af190811561046e57600091610a42575b5015610a0957005b60405162461bcd60e51b815260206004820152601160248201527015da5d1a191c985dd85b0819985a5b1959607a1b6044820152606490fd5b610a5a915060203d8111610467576104598183611077565b81610a01565b3461010b57600036600319011261010b57604080516000815260006020820152f35b3461010b5760c036600319011261010b57600435610a9e610fa1565b6001600160a01b03916044359160a43584811692916084359184900361010b57610acd86600054163314611029565b8415610ce157606435610ae0868461106a565b11610cab578516928314610c585783908260005260209560018752604060002085600052875260406000205415610b90575b50610b7c7ff31343540affa723d26848192c2f28ab76925951531440b6f2e082030394314f9260409285600052600189528360002087600052895283600020610b5c83825461106a565b9055856000526003895283600020610b7583825461106a565b905561106a565b9481519081528587820152a3604051908152f35b60008481526002885260409020805468010000000000000000945084811015610c4257610bc291600182018155610ffb565b819291549060031b9187831b921b191617905583600052600486526040600020805492831015610c425785604092610c2485610b7c9460017ff31343540affa723d26848192c2f28ab76925951531440b6f2e082030394314f98018155610ffb565b81549060031b9088821b91600019901b191617905592509250610b12565b634e487b7160e01b600052604160045260246000fd5b60405162461bcd60e51b815260206004820152602560248201527f537570706c6965722063616e6e6f7420696e7665737420696e206f776e20696e604482015264766f69636560d81b6064820152608490fd5b60405162461bcd60e51b815260206004820152600e60248201526d115e18d959591cc81d185c99d95d60921b6044820152606490fd5b60405162461bcd60e51b815260206004820152602260248201527f496e766573746d656e7420616d6f756e74206d75737420626520706f73697469604482015261766560f01b6064820152608490fd5b3461010b57604036600319011261010b57610d4a610fb7565b602435600052600160205260406000209060018060a01b03166000526020526020604060002054604051908152f35b3461010b57600036600319011261010b576040517f00000000000000000000000000000000000000000000000000000000000000006001600160a01b03168152602090f35b3461010b576020610dce36610fcd565b60009384526001855260408085206001600160a01b03909416855292855291832054919082151580610e3b575b610e0b575b505050604051908152f35b610e3393506301e1338091612710610e26610e2c938661112e565b0461112e565b049061106a565b828080610e00565b50801515610dfb565b3461010b57606036600319011261010b57610e5d610fa1565b60443560018060a01b03610e7681600054163314611029565b8115610f5c57600435600052602092600384526040600020548311610f225760405163a9059cbb60e01b81526001600160a01b0391909116600482015260248101929092528290829060449082906000907f0000000000000000000000000000000000000000000000000000000000000000165af190811561046e57600091610f05575b506040519015158152f35b610f1c9150823d8411610467576104598183611077565b82610efa565b60405162461bcd60e51b8152600481018590526012602482015271496e73756666696369656e742066756e647360701b6044820152606490fd5b60405162461bcd60e51b815260206004820152601760248201527f416d6f756e74206d75737420626520706f7369746976650000000000000000006044820152606490fd5b602435906001600160a01b038216820361010b57565b600435906001600160a01b038216820361010b57565b608090600319011261010b57600435906024356001600160a01b038116810361010b57906044359060643590565b80548210156110135760005260206000200190600090565b634e487b7160e01b600052603260045260246000fd5b1561103057565b60405162461bcd60e51b815260206004820152601260248201527113db9b1e4818dbdc994818dbdb9d1c9858dd60721b6044820152606490fd5b919082018092116104cb57565b90601f8019910116810190811067ffffffffffffffff821117610c4257604052565b9081602091031261010b5751801515810361010b5790565b9060405191828154918282526020928383019160005283600020936000905b8282106110e8575050506110e692500383611077565b565b85546001600160a01b0316845260019586019588955093810193909101906110d0565b60001981146104cb5760010190565b80518210156110135760209160051b010190565b818102929181159184041417156104cb5756fea2646970667358221220c64c7b655973b5a8ede1c8abea335a9fcd47a664fa02cd521e1d4685e556259a64736f6c63430008140033",
  "linkReferences": {},
  "deployedLinkReferences": {}
}