{
  "_format": "hh-sol-artifact-1",
  "contractName": "EarnXInvoiceNFT",
  "sourceName": "contracts/EarnXInvoiceNFT.sol",
  "abi": [
    {
      "inputs": [],
      "stateMutability": "nonpayable",
      "type": "constructor"
    },
    {
      "anonymous": false,
      "inputs": [
        {
          "indexed": true,
          "internalType": "address",
          "name": "owner",
          "type": "address"
        },
        {
          "indexed": true,
          "internalType": "address",
          "name": "approved",
          "type": "address"
        },
        {
          "indexed": true,
          "internalType": "uint256",
          "name": "tokenId",
          "type": "uint256"
        }
      ],
      "name": "Approval",
      "type": "event"
    },
    {
      "anonymous": false,
      "inputs": [
        {
          "indexed": true,
          "internalType": "address",
          "name": "owner",
          "type": "address"
        },
        {
          "indexed": true,
          "internalType": "address",
          "name": "operator",
          "type": "address"
        },
        {
          "indexed": false,
          "internalType": "bool",
          "name": "approved",
          "type": "bool"
        }
      ],
      "name": "ApprovalForAll",
      "type": "event"
    },
    {
      "anonymous": false,
      "inputs": [
        {
          "indexed": true,
          "internalType": "uint256",
          "name": "tokenId",
          "type": "uint256"
        },
        {
          "indexed": false,
          "internalType": "string",
          "name": "imageHash",
          "type": "string"
        },
        {
          "indexed": false,
          "internalType": "string",
          "name": "metadataHash",
          "type": "string"
        }
      ],
      "name": "IPFSMetadataUpdated",
      "type": "event"
    },
    {
      "anonymous": false,
      "inputs": [
        {
          "indexed": true,
          "internalType": "uint256",
          "name": "tokenId",
          "type": "uint256"
        },
        {
          "indexed": true,
          "internalType": "address",
          "name": "to",
          "type": "address"
        },
        {
          "indexed": false,
          "internalType": "string",
          "name": "commodity",
          "type": "string"
        },
        {
          "indexed": false,
          "internalType": "uint256",
          "name": "amount",
          "type": "uint256"
        }
      ],
      "name": "InvoiceNFTMinted",
      "type": "event"
    },
    {
      "anonymous": false,
      "inputs": [
        {
          "indexed": true,
          "internalType": "uint256",
          "name": "tokenId",
          "type": "uint256"
        },
        {
          "indexed": false,
          "internalType": "uint8",
          "name": "newStatus",
          "type": "uint8"
        }
      ],
      "name": "InvoiceStatusUpdated",
      "type": "event"
    },
    {
      "anonymous": false,
      "inputs": [
        {
          "indexed": true,
          "internalType": "uint256",
          "name": "tokenId",
          "type": "uint256"
        },
        {
          "indexed": false,
          "internalType": "uint256",
          "name": "riskScore",
          "type": "uint256"
        },
        {
          "indexed": false,
          "internalType": "uint256",
          "name": "apr",
          "type": "uint256"
        }
      ],
      "name": "InvoiceVerified",
      "type": "event"
    },
    {
      "anonymous": false,
      "inputs": [
        {
          "indexed": true,
          "internalType": "address",
          "name": "from",
          "type": "address"
        },
        {
          "indexed": true,
          "internalType": "address",
          "name": "to",
          "type": "address"
        },
        {
          "indexed": true,
          "internalType": "uint256",
          "name": "tokenId",
          "type": "uint256"
        }
      ],
      "name": "Transfer",
      "type": "event"
    },
    {
      "inputs": [
        {
          "internalType": "uint256",
          "name": "",
          "type": "uint256"
        }
      ],
      "name": "amount",
      "outputs": [
        {
          "internalType": "uint256",
          "name": "",
          "type": "uint256"
        }
      ],
      "stateMutability": "view",
      "type": "function"
    },
    {
      "inputs": [
        {
          "internalType": "address",
          "name": "to",
          "type": "address"
        },
        {
          "internalType": "uint256",
          "name": "tokenId",
          "type": "uint256"
        }
      ],
      "name": "approve",
      "outputs": [],
      "stateMutability": "nonpayable",
      "type": "function"
    },
    {
      "inputs": [
        {
          "internalType": "address",
          "name": "owner",
          "type": "address"
        }
      ],
      "name": "balanceOf",
      "outputs": [
        {
          "internalType": "uint256",
          "name": "",
          "type": "uint256"
        }
      ],
      "stateMutability": "view",
      "type": "function"
    },
    {
      "inputs": [
        {
          "internalType": "uint256",
          "name": "",
          "type": "uint256"
        }
      ],
      "name": "buyerName",
      "outputs": [
        {
          "internalType": "string",
          "name": "",
          "type": "string"
        }
      ],
      "stateMutability": "view",
      "type": "function"
    },
    {
      "inputs": [
        {
          "internalType": "uint256",
          "name": "",
          "type": "uint256"
        }
      ],
      "name": "commodity",
      "outputs": [
        {
          "internalType": "string",
          "name": "",
          "type": "string"
        }
      ],
      "stateMutability": "view",
      "type": "function"
    },
    {
      "inputs": [
        {
          "internalType": "uint256",
          "name": "",
          "type": "uint256"
        }
      ],
      "name": "createdAt",
      "outputs": [
        {
          "internalType": "uint256",
          "name": "",
          "type": "uint256"
        }
      ],
      "stateMutability": "view",
      "type": "function"
    },
    {
      "inputs": [
        {
          "internalType": "uint256",
          "name": "",
          "type": "uint256"
        }
      ],
      "name": "destination",
      "outputs": [
        {
          "internalType": "string",
          "name": "",
          "type": "string"
        }
      ],
      "stateMutability": "view",
      "type": "function"
    },
    {
      "inputs": [
        {
          "internalType": "uint256",
          "name": "",
          "type": "uint256"
        }
      ],
      "name": "dueDate",
      "outputs": [
        {
          "internalType": "uint256",
          "name": "",
          "type": "uint256"
        }
      ],
      "stateMutability": "view",
      "type": "function"
    },
    {
      "inputs": [
        {
          "internalType": "uint256",
          "name": "tokenId",
          "type": "uint256"
        }
      ],
      "name": "exists",
      "outputs": [
        {
          "internalType": "bool",
          "name": "",
          "type": "bool"
        }
      ],
      "stateMutability": "view",
      "type": "function"
    },
    {
      "inputs": [
        {
          "internalType": "uint256",
          "name": "",
          "type": "uint256"
        }
      ],
      "name": "exporterName",
      "outputs": [
        {
          "internalType": "string",
          "name": "",
          "type": "string"
        }
      ],
      "stateMutability": "view",
      "type": "function"
    },
    {
      "inputs": [
        {
          "internalType": "uint256",
          "name": "",
          "type": "uint256"
        }
      ],
      "name": "finalAPR",
      "outputs": [
        {
          "internalType": "uint256",
          "name": "",
          "type": "uint256"
        }
      ],
      "stateMutability": "view",
      "type": "function"
    },
    {
      "inputs": [
        {
          "internalType": "uint256",
          "name": "tokenId",
          "type": "uint256"
        }
      ],
      "name": "getApproved",
      "outputs": [
        {
          "internalType": "address",
          "name": "",
          "type": "address"
        }
      ],
      "stateMutability": "view",
      "type": "function"
    },
    {
      "inputs": [
        {
          "internalType": "uint256",
          "name": "tokenId",
          "type": "uint256"
        }
      ],
      "name": "getIPFSData",
      "outputs": [
        {
          "internalType": "string",
          "name": "imageHash",
          "type": "string"
        },
        {
          "internalType": "string",
          "name": "metadataHash",
          "type": "string"
        },
        {
          "internalType": "string",
          "name": "documentHash",
          "type": "string"
        },
        {
          "internalType": "uint256",
          "name": "lastUpdated",
          "type": "uint256"
        },
        {
          "internalType": "bool",
          "name": "isUploaded",
          "type": "bool"
        }
      ],
      "stateMutability": "view",
      "type": "function"
    },
    {
      "inputs": [
        {
          "internalType": "uint256",
          "name": "tokenId",
          "type": "uint256"
        }
      ],
      "name": "getInvoiceBasicData",
      "outputs": [
        {
          "internalType": "string",
          "name": "commodityType",
          "type": "string"
        },
        {
          "internalType": "uint256",
          "name": "invoiceAmount",
          "type": "uint256"
        },
        {
          "internalType": "string",
          "name": "exporter",
          "type": "string"
        },
        {
          "internalType": "string",
          "name": "buyer",
          "type": "string"
        }
      ],
      "stateMutability": "view",
      "type": "function"
    },
    {
      "inputs": [
        {
          "internalType": "uint256",
          "name": "tokenId",
          "type": "uint256"
        }
      ],
      "name": "getInvoiceData",
      "outputs": [
        {
          "internalType": "string",
          "name": "commodityType",
          "type": "string"
        },
        {
          "internalType": "uint256",
          "name": "invoiceAmount",
          "type": "uint256"
        },
        {
          "internalType": "string",
          "name": "exporter",
          "type": "string"
        },
        {
          "internalType": "string",
          "name": "buyer",
          "type": "string"
        },
        {
          "internalType": "string",
          "name": "dest",
          "type": "string"
        },
        {
          "internalType": "uint256",
          "name": "due",
          "type": "uint256"
        },
        {
          "internalType": "uint8",
          "name": "currentStatus",
          "type": "uint8"
        },
        {
          "internalType": "uint256",
          "name": "created",
          "type": "uint256"
        },
        {
          "internalType": "uint256",
          "name": "risk",
          "type": "uint256"
        },
        {
          "internalType": "uint256",
          "name": "apr",
          "type": "uint256"
        }
      ],
      "stateMutability": "view",
      "type": "function"
    },
    {
      "inputs": [
        {
          "internalType": "uint256",
          "name": "tokenId",
          "type": "uint256"
        }
      ],
      "name": "getInvoiceRiskData",
      "outputs": [
        {
          "internalType": "uint256",
          "name": "risk",
          "type": "uint256"
        },
        {
          "internalType": "uint256",
          "name": "apr",
          "type": "uint256"
        }
      ],
      "stateMutability": "view",
      "type": "function"
    },
    {
      "inputs": [
        {
          "internalType": "uint256",
          "name": "tokenId",
          "type": "uint256"
        }
      ],
      "name": "getInvoiceStatusData",
      "outputs": [
        {
          "internalType": "string",
          "name": "dest",
          "type": "string"
        },
        {
          "internalType": "uint256",
          "name": "due",
          "type": "uint256"
        },
        {
          "internalType": "uint8",
          "name": "currentStatus",
          "type": "uint8"
        },
        {
          "internalType": "uint256",
          "name": "created",
          "type": "uint256"
        }
      ],
      "stateMutability": "view",
      "type": "function"
    },
    {
      "inputs": [],
      "name": "getProtocol",
      "outputs": [
        {
          "internalType": "address",
          "name": "",
          "type": "address"
        }
      ],
      "stateMutability": "view",
      "type": "function"
    },
    {
      "inputs": [
        {
          "internalType": "uint256",
          "name": "",
          "type": "uint256"
        }
      ],
      "name": "ipfsData",
      "outputs": [
        {
          "internalType": "string",
          "name": "imageHash",
          "type": "string"
        },
        {
          "internalType": "string",
          "name": "metadataHash",
          "type": "string"
        },
        {
          "internalType": "string",
          "name": "documentHash",
          "type": "string"
        },
        {
          "internalType": "uint256",
          "name": "lastUpdated",
          "type": "uint256"
        },
        {
          "internalType": "bool",
          "name": "isUploaded",
          "type": "bool"
        }
      ],
      "stateMutability": "view",
      "type": "function"
    },
    {
      "inputs": [
        {
          "internalType": "address",
          "name": "owner",
          "type": "address"
        },
        {
          "internalType": "address",
          "name": "operator",
          "type": "address"
        }
      ],
      "name": "isApprovedForAll",
      "outputs": [
        {
          "internalType": "bool",
          "name": "",
          "type": "bool"
        }
      ],
      "stateMutability": "view",
      "type": "function"
    },
    {
      "inputs": [
        {
          "internalType": "address",
          "name": "to",
          "type": "address"
        },
        {
          "internalType": "string",
          "name": "_commodity",
          "type": "string"
        },
        {
          "internalType": "uint256",
          "name": "_amount",
          "type": "uint256"
        },
        {
          "internalType": "string",
          "name": "_exporterName",
          "type": "string"
        },
        {
          "internalType": "string",
          "name": "_buyerName",
          "type": "string"
        },
        {
          "internalType": "string",
          "name": "_destination",
          "type": "string"
        },
        {
          "internalType": "uint256",
          "name": "_dueDate",
          "type": "uint256"
        },
        {
          "internalType": "string",
          "name": "_documentHash",
          "type": "string"
        }
      ],
      "name": "mintInvoiceNFT",
      "outputs": [
        {
          "internalType": "uint256",
          "name": "",
          "type": "uint256"
        }
      ],
      "stateMutability": "nonpayable",
      "type": "function"
    },
    {
      "inputs": [
        {
          "internalType": "address",
          "name": "to",
          "type": "address"
        },
        {
          "internalType": "uint256",
          "name": "invoiceId",
          "type": "uint256"
        },
        {
          "internalType": "string",
          "name": "_commodity",
          "type": "string"
        },
        {
          "internalType": "uint256",
          "name": "_amount",
          "type": "uint256"
        },
        {
          "internalType": "string",
          "name": "_exporterName",
          "type": "string"
        },
        {
          "internalType": "string",
          "name": "_buyerName",
          "type": "string"
        },
        {
          "internalType": "string",
          "name": "_destination",
          "type": "string"
        },
        {
          "internalType": "uint256",
          "name": "_dueDate",
          "type": "uint256"
        },
        {
          "internalType": "uint8",
          "name": "_status",
          "type": "uint8"
        },
        {
          "internalType": "uint256",
          "name": "_createdAt",
          "type": "uint256"
        },
        {
          "internalType": "uint256",
          "name": "_riskScore",
          "type": "uint256"
        },
        {
          "internalType": "uint256",
          "name": "_finalAPR",
          "type": "uint256"
        }
      ],
      "name": "mintToSupplier",
      "outputs": [
        {
          "internalType": "uint256",
          "name": "",
          "type": "uint256"
        }
      ],
      "stateMutability": "nonpayable",
      "type": "function"
    },
    {
      "inputs": [],
      "name": "name",
      "outputs": [
        {
          "internalType": "string",
          "name": "",
          "type": "string"
        }
      ],
      "stateMutability": "view",
      "type": "function"
    },
    {
      "inputs": [
        {
          "internalType": "uint256",
          "name": "tokenId",
          "type": "uint256"
        }
      ],
      "name": "ownerOf",
      "outputs": [
        {
          "internalType": "address",
          "name": "",
          "type": "address"
        }
      ],
      "stateMutability": "view",
      "type": "function"
    },
    {
      "inputs": [],
      "name": "protocol",
      "outputs": [
        {
          "internalType": "address",
          "name": "",
          "type": "address"
        }
      ],
      "stateMutability": "view",
      "type": "function"
    },
    {
      "inputs": [
        {
          "internalType": "uint256",
          "name": "",
          "type": "uint256"
        }
      ],
      "name": "riskScore",
      "outputs": [
        {
          "internalType": "uint256",
          "name": "",
          "type": "uint256"
        }
      ],
      "stateMutability": "view",
      "type": "function"
    },
    {
      "inputs": [
        {
          "internalType": "address",
          "name": "from",
          "type": "address"
        },
        {
          "internalType": "address",
          "name": "to",
          "type": "address"
        },
        {
          "internalType": "uint256",
          "name": "tokenId",
          "type": "uint256"
        }
      ],
      "name": "safeTransferFrom",
      "outputs": [],
      "stateMutability": "nonpayable",
      "type": "function"
    },
    {
      "inputs": [
        {
          "internalType": "address",
          "name": "operator",
          "type": "address"
        },
        {
          "internalType": "bool",
          "name": "approved",
          "type": "bool"
        }
      ],
      "name": "setApprovalForAll",
      "outputs": [],
      "stateMutability": "nonpayable",
      "type": "function"
    },
    {
      "inputs": [
        {
          "internalType": "address",
          "name": "_protocol",
          "type": "address"
        }
      ],
      "name": "setProtocol",
      "outputs": [],
      "stateMutability": "nonpayable",
      "type": "function"
    },
    {
      "inputs": [
        {
          "internalType": "address",
          "name": "_protocol",
          "type": "address"
        }
      ],
      "name": "setProtocolAddress",
      "outputs": [],
      "stateMutability": "nonpayable",
      "type": "function"
    },
    {
      "inputs": [
        {
          "internalType": "uint256",
          "name": "",
          "type": "uint256"
        }
      ],
      "name": "status",
      "outputs": [
        {
          "internalType": "uint8",
          "name": "",
          "type": "uint8"
        }
      ],
      "stateMutability": "view",
      "type": "function"
    },
    {
      "inputs": [
        {
          "internalType": "bytes4",
          "name": "interfaceId",
          "type": "bytes4"
        }
      ],
      "name": "supportsInterface",
      "outputs": [
        {
          "internalType": "bool",
          "name": "",
          "type": "bool"
        }
      ],
      "stateMutability": "pure",
      "type": "function"
    },
    {
      "inputs": [],
      "name": "symbol",
      "outputs": [
        {
          "internalType": "string",
          "name": "",
          "type": "string"
        }
      ],
      "stateMutability": "view",
      "type": "function"
    },
    {
      "inputs": [
        {
          "internalType": "uint256",
          "name": "",
          "type": "uint256"
        }
      ],
      "name": "tokenOwner",
      "outputs": [
        {
          "internalType": "address",
          "name": "",
          "type": "address"
        }
      ],
      "stateMutability": "view",
      "type": "function"
    },
    {
      "inputs": [
        {
          "internalType": "uint256",
          "name": "tokenId",
          "type": "uint256"
        }
      ],
      "name": "tokenURI",
      "outputs": [
        {
          "internalType": "string",
          "name": "",
          "type": "string"
        }
      ],
      "stateMutability": "view",
      "type": "function"
    },
    {
      "inputs": [],
      "name": "totalSupply",
      "outputs": [
        {
          "internalType": "uint256",
          "name": "",
          "type": "uint256"
        }
      ],
      "stateMutability": "view",
      "type": "function"
    },
    {
      "inputs": [
        {
          "internalType": "address",
          "name": "from",
          "type": "address"
        },
        {
          "internalType": "address",
          "name": "to",
          "type": "address"
        },
        {
          "internalType": "uint256",
          "name": "tokenId",
          "type": "uint256"
        }
      ],
      "name": "transferFrom",
      "outputs": [],
      "stateMutability": "nonpayable",
      "type": "function"
    },
    {
      "inputs": [
        {
          "internalType": "uint256",
          "name": "tokenId",
          "type": "uint256"
        },
        {
          "internalType": "string",
          "name": "_imageHash",
          "type": "string"
        },
        {
          "internalType": "string",
          "name": "_metadataHash",
          "type": "string"
        }
      ],
      "name": "updateIPFSMetadata",
      "outputs": [],
      "stateMutability": "nonpayable",
      "type": "function"
    },
    {
      "inputs": [
        {
          "internalType": "uint256",
          "name": "tokenId",
          "type": "uint256"
        },
        {
          "internalType": "uint256",
          "name": "_riskScore",
          "type": "uint256"
        },
        {
          "internalType": "uint256",
          "name": "_finalAPR",
          "type": "uint256"
        }
      ],
      "name": "updateInvoiceVerification",
      "outputs": [],
      "stateMutability": "nonpayable",
      "type": "function"
    },
    {
      "inputs": [
        {
          "internalType": "uint256",
          "name": "tokenId",
          "type": "uint256"
        },
        {
          "internalType": "uint8",
          "name": "newStatus",
          "type": "uint8"
        }
      ],
      "name": "updateStatus",
      "outputs": [],
      "stateMutability": "nonpayable",
      "type": "function"
    }
  ],
  "bytecode": "0x608060405234620000d6576000620000188154620000db565b601f8111620000a9575b5060227011585c9b9608125b9d9bda58d948139195607a1b0181556001906200004c8254620000db565b90601f82116200007a575b600a64115613919560da1b0183556002839055604051612ffb9081620001198239f35b82815282601f60208320930160051c8301925b8381106200009d57505062000057565b8281550183906200008d565b818052601f60208320910160051c8101905b818110620000ca575062000022565b828155600101620000bb565b600080fd5b90600182811c921680156200010d575b6020831014620000f757565b634e487b7160e01b600052602260045260246000fd5b91607f1691620000eb56fe608080604052600436101561001357600080fd5b600090813560e01c90816301ffc9a7146128775750806306fdde03146127a8578063081812fc1461275d578063095ea7b31461266d57806309a2283a1461253d57806309fd6c6d146124e75780630a9d793d1461145457806318160ddd146124bb5780631caaa4871461248857806323b872dd146122cb5780632569e778146118a95780632658fd0a14611849578063275019b01461181f5780632d5a762b1461176d5780633a1b3d31146116db57806342842e0e1461165057806342d21ef714611623578063441405051461158e57806344f6891e146115635780634f558e791461152e57806350a1676e14611504578063584614411461145957806358e4700414611454578063619d9616146111375780636352211e146110ec578063698a51791461065a57806370a08231146105865780637823db251461055c5780638b0d0258146105325780638ce744261461027c57806395d89b41146104675780639614ed1f1461043c5780639ece273c146103ac578063a22cb4651461031a578063a613f485146102ef578063b53632c2146102c5578063c87b56dd146102a5578063d16352af1461027c578063e985e9c51461021e5763ee4a2f51146101d957600080fd5b3461021b57602036600319011261021b57610203604061021792600435815260076020522061298b565b604051918291602083526020830190612a54565b0390f35b80fd5b503461021b57604036600319011261021b57610238612a79565b6024356001600160a01b0381811693918490036102775760409216815260116020522090600052602052602060ff604060002054166040519015158152f35b600080fd5b503461021b578060031936011261021b576003546040516001600160a01b039091168152602090f35b503461021b57602036600319011261021b57610217610203600435612c8f565b503461021b57602036600319011261021b5760406020916004358152600d83522054604051908152f35b503461021b57602036600319011261021b57610203604061021792600435815260086020522061298b565b503461021b57604036600319011261021b57610334612a79565b602435801515908181036103a857610379903385526011602052604085209360018060a01b0316938460005260205260406000209060ff801983541691151516179055565b6040519081527f17307eab39ab6107e8899845ad3d59bd9653f200f220920489ca2b5937696c3160203392a380f35b8380fd5b503461021b57606036600319011261021b576004357fb08f24163c56b1d0b9f8303da54a8aaae5db5ec8eb5847c167142ef36a827b58604060243560443561041760018060a01b0361040381600354163314612bec565b868852600460205284882054161515612c4c565b848652600d6020528183872055600e602052808387205582519182526020820152a280f35b503461021b57602036600319011261021b57610203604061021792600435815260056020522061298b565b503461021b578060031936011261021b576040516000600180549061048b826128e4565b8085529181811690811561050b57506001146104b2575b610217846102038186038261296a565b600081815292507fb10e2d527612073b26eecdfd717e6a320cf44b4afac2b0732d9fcbe2b7fa0cf65b8284106104f3575050508101602001610203826104a2565b805460208587018101919091529093019281016104db565b60ff191660208087019190915292151560051b8501909201925061020391508390506104a2565b503461021b57602036600319011261021b5760406020916004358152600683522054604051908152f35b503461021b57602036600319011261021b5760406020916004358152600e83522054604051908152f35b503461021b576020908160031936011261021b576001600160a01b0390816105ac612a79565b1680156106265781926002549260001984019384116106125760015b848111156105da578686604051908152f35b808252600487528383604084205416146105fd575b6105f890612c27565b6105c8565b9461060a6105f891612c27565b9590506105ef565b634e487b7160e01b81526011600452602490fd5b60405162461bcd60e51b815260048101859052600c60248201526b5a65726f206164647265737360a01b6044820152606490fd5b503461021b5761018036600319011261021b57610675612a79565b6044356001600160401b0381116110e857610694903690600401612b5c565b6084356001600160401b0381116103a8576106b3903690600401612b5c565b9060a4356001600160401b0381116110e4576106d3903690600401612b5c565b60c4356001600160401b0381116110e0576106f2903690600401612b5c565b610104359160ff83168303610277576003546001600160a01b03959061071b9087163314612bec565b60243588526004602052604088208688166001600160601b0360a01b82541617905560056020526040882085516001600160401b03811161101b5761076082546128e4565b601f811161109e575b50806020601f821160011461103a578b9161102f575b508160011b916000199060031b1c19161790555b602435885260066020526064356040892055600760205260408820908051906001600160401b03821161101b5781906107cc84546128e4565b601f8111610fcd575b50602090601f8311600114610f64578b92610f59575b50508160011b916000199060031b1c19161790555b6024358752600860205260408720908051906001600160401b038211610f4557819061082c84546128e4565b601f8111610ef8575b50602090601f8311600114610e8f578a92610e84575b50508160011b916000199060031b1c19161790555b6024358652600960205260408620908051906001600160401b038211610c2957819061088c84546128e4565b601f8111610e37575b50602090601f8311600114610dce578992610dc3575b50508160011b916000199060031b1c19161790555b6024358552600a60205260e4356040862055600b60205260ff60408620911660ff19825416179055600c602052610124356040852055600d602052610144356040852055600e60205261016435604085205560405161091e8161291e565b60405161092a8161294f565b858152815260405161093b8161294f565b858152602082015260405161094f8161294f565b85815260408201524260608201528460808201526024358552600f602052604085209080518051906001600160401b038211610c2957819061099185546128e4565b601f8111610d76575b50602090601f8311600114610d12578992610d07575b50508160011b916000199060031b1c19161782555b60208101518051906001600160401b038211610c295781906109ea60018601546128e4565b601f8111610cb7575b50602090601f8311600114610c48578992610c3d575b50508160011b916000199060031b1c19161760018301555b60408101518051906001600160401b038211610c2957610a4460028501546128e4565b601f8111610be5575b50602090601f8311600114610b6f579282600493608093610aa997968c92610b64575b50508160011b916000199060031b1c19161760028501555b606081015160038501550151151591019060ff801983541691151516179055565b6002546024351015610b39575b90610b1a7fbc08b4cfc0f2a99c09576ab1e516bfd1b419ae23ec54804b8926c0d4c043291a926040519560243590848716907fddf252ad1be2c89b69c2b068fc378daa952ba7f163c4a11628f55a4df523b3ef8180a4604086526040860190612a54565b926064356020860152169280602435930390a360206040516024358152f35b6001602435018060243511610b5057600255610ab6565b634e487b7160e01b85526011600452602485fd5b015190503880610a70565b906002850189526020892091895b601f1985168110610bcd575083608093610aa9979693600193600497601f19811610610bb4575b505050811b016002850155610a88565b015160001960f88460031b161c19169055388080610ba4565b91926020600181928685015181550194019201610b7d565b60028501895260208920601f840160051c810160208510610c22575b601f830160051c82018110610c17575050610a4d565b8a8155600101610c01565b5080610c01565b634e487b7160e01b88526041600452602488fd5b015190503880610a09565b9250600185018952602089209089935b601f1984168510610c9c576001945083601f19811610610c83575b505050811b016001830155610a21565b015160001960f88460031b161c19169055388080610c73565b81810151835560209485019460019093019290910190610c58565b90915060018501895260208920601f840160051c810160208510610d00575b90849392915b601f830160051c82018110610cf25750506109f3565b8b8155859450600101610cdc565b5080610cd6565b0151905038806109b0565b858a5260208a209250601f1984168a5b818110610d5e5750908460019594939210610d45575b505050811b0182556109c5565b015160001960f88460031b161c19169055388080610d38565b92936020600181928786015181550195019301610d22565b90915084895260208920601f840160051c810160208510610dbc575b90849392915b601f830160051c82018110610dae57505061099a565b8b8155859450600101610d98565b5080610d92565b0151905038806108ab565b9250838952602089209089935b601f1984168510610e1c576001945083601f19811610610e03575b505050811b0190556108c0565b015160001960f88460031b161c19169055388080610df6565b81810151835560209485019460019093019290910190610ddb565b90915083895260208920601f840160051c810160208510610e7d575b90849392915b601f830160051c82018110610e6f575050610895565b8b8155859450600101610e59565b5080610e53565b01519050388061084b565b9250838a5260208a20908a935b601f1984168510610edd576001945083601f19811610610ec4575b505050811b019055610860565b015160001960f88460031b161c19169055388080610eb7565b81810151835560209485019460019093019290910190610e9c565b909150838a5260208a20601f840160051c810160208510610f3e575b90849392915b601f830160051c82018110610f30575050610835565b8c8155859450600101610f1a565b5080610f14565b634e487b7160e01b89526041600452602489fd5b0151905038806107eb565b9250838b5260208b20908b935b601f1984168510610fb2576001945083601f19811610610f99575b505050811b019055610800565b015160001960f88460031b161c19169055388080610f8c565b81810151835560209485019460019093019290910190610f71565b909150838b5260208b20601f840160051c810160208510611014575b90849392915b8d601f840160051c83018210611007575050506107d5565b8155859450600101610fef565b5080610fe9565b634e487b7160e01b8a52604160045260248afd5b90508701513861077f565b9150828b5260208b208b925b601f1983168410611086576001935082601f1981161061106d575b5050811b019055610793565b89015160001960f88460031b161c191690553880611061565b89810151825560209384019360019092019101611046565b828b5260208b20601f830160051c8101602084106110d9575b8c601f840160051c830182106110cf57505050610769565b81556001016110b7565b50806110b7565b8580fd5b8480fd5b8280fd5b503461021b57602036600319011261021b576020906040600435918281526004845260018060a01b03926111268484842054161515612c4c565b815260048452205416604051908152f35b503461021b57606036600319011261021b576004356001600160401b036024358181116103a85761116c903690600401612b5c565b906044358181116110e457611185903690600401612b5c565b60018060a01b0391600361119d848254163314612bec565b8587526111b7602094600486526040892054161515612c4c565b858752600f845260408720855190838211610f45576111d681546128e4565b91601f92838111611414575b5080878482116001146113b3578b916113a8575b508160011b9160001990861b1c19161790555b868852600f85526001928360408a200191855191821161101b5761122d83546128e4565b818111611365575b5089879183116001146112da57937f955fca6958de7e097c58f7d6577c6fa72f6b4bf02efb1bb876732bcb38aa43fb989693836112c997946004946112bc9b98916112cf575b5060001982851b1c191690851b1790555b898b52600f855260408b20904290820155019060ff19825416179055604051948594604086526040860190612a54565b9184830390850152612a54565b0390a280f35b90508601513861127b565b50828a52868a2090601f1983168b5b81811061135057509386846004946112bc9b98946112c99a977f955fca6958de7e097c58f7d6577c6fa72f6b4bf02efb1bb876732bcb38aa43fb9e9c9910611338575b5050811b01905561128c565b88015160001983871b60f8161c19169055388061132c565b888301518455928701929189019189016112e9565b838b52878b208280850160051c8201928a861061139f575b0160051c019086905b828110611394575050611235565b8c8155018690611386565b9250819261137d565b9050880151386111f6565b838c52888c209150601f1983168c5b8a8c8383106113ff5750505090836001949392106113e7575b5050811b019055611209565b8a015160001983881b60f8161c1916905538806113db565b840151855560019094019392830192016113c2565b828b52878b208480840160051c8201928a851061144b575b0160051c01905b81811061144057506111e2565b8b8155600101611433565b9250819261142c565b612a8f565b503461021b57602036600319011261021b57604090600435808252600460205261148f60018060a01b0384842054161515612c4c565b8152600f602052206040516114a38161291e565b6114ac8261298b565b81526102176114bd6001840161298b565b91602081019283526114d16002850161298b565b9384604083015260ff60046003830154928360608601520154161515918260808201525193519460405195869586612ba3565b503461021b57602036600319011261021b5760406020916004358152600c83522054604051908152f35b503461021b57602036600319011261021b57602090600435815260048252604060018060a01b03912054161515604051908152f35b503461021b57602036600319011261021b57610203604061021792600435815260096020522061298b565b503461021b5760208060031936011261161f579061160d91600435808352600482526115c760018060a01b036040852054161515612c4c565b82526009815260408220600a8252604083205492600b83526115f8604060ff818420541692600c865220549261298b565b93604051958695608087526080870190612a54565b93850152604084015260608301520390f35b5080fd5b503461021b57602036600319011261021b5760ff60406020926004358152600b8452205416604051908152f35b503461021b5761165f36612b0c565b9091303b156103a8576040516323b872dd60e01b81526001600160a01b039182166004820152921660248301526044820152818160648183305af180156116d0576116a8575080f35b6001600160401b0381116116bc5760405280f35b634e487b7160e01b82526041600452602482fd5b6040513d84823e3d90fd5b503461021b57604036600319011261021b5760043560243560ff81168091036110e85760207f074d2785b8b7aaa7611a7af06492f34991141994ea06bd3852f899c5890d17419161174f60018060a01b0361173b81600354163314612bec565b858752600484526040872054161515612c4c565b838552600b82526040808620805460ff19168317905551908152a280f35b503461021b5760208060031936011261161f579061021761180092600435808452600482526117a960018060a01b036040862054161515612c4c565b835260058152611811604084209160068152604085205492600782526117eb6117e56117df6040808a209960088752209361298b565b9761298b565b9161298b565b93604051978897608089526080890190612a54565b928701528582036040870152612a54565b908382036060850152612a54565b503461021b57602036600319011261021b5760406020916004358152600a83522054604051908152f35b503461021b57602036600319011261021b576040906004358152600f602052206118728161298b565b6102176118816001840161298b565b9261188e6002820161298b565b9060ff60046003830154920154169160405195869586612ba3565b503461021b5761010036600319011261021b576118c4612a79565b6024356001600160401b0381116110e8576118e3903690600401612b5c565b906064356001600160401b0381116103a857611903903690600401612b5c565b916084356001600160401b0381116110e457611923903690600401612b5c565b9060a4356001600160401b0381116110e057611943903690600401612b5c565b60e4356001600160401b0381116122c757611962903690600401612b5c565b9060018060a01b039361197a85600354163314612bec565b6002549661198788612c27565b6002558789526004602052604089208688166001600160601b0360a01b82541617905560056020526040892085516001600160401b038111612202576119cd82546128e4565b601f8111612285575b50806020601f8211600114612221578c91612216575b508160011b916000199060031b1c19161790555b878952600660205260443560408a2055600760205260408920908051906001600160401b038211612202578190611a3784546128e4565b601f81116121b3575b50602090601f831160011461214a578c9261213f575b50508160011b916000199060031b1c19161790555b868852600860205260408820908051906001600160401b03821161101b578190611a9584546128e4565b601f81116120f1575b50602090601f8311600114612088578b9261207d575b50508160011b916000199060031b1c19161790555b858752600960205260408720908051906001600160401b038211610f45578190611af384546128e4565b601f8111612030575b50602090601f8311600114611fc7578a92611fbc575b50508160011b916000199060031b1c19161790555b848652600a60205260c4356040872055600b6020526040862060ff198154169055600c602052426040872055600d602052856040812055600e60205285604081205560405190611b768261291e565b604051611b828161294f565b8781528252604051611b938161294f565b87815260208301526040820152426060820152856080820152848652600f602052604086209080518051906001600160401b038211610f45578190611bd885546128e4565b601f8111611f6f575b50602090601f8311600114611f0b578a92611f00575b50508160011b916000199060031b1c19161782555b60208101518051906001600160401b038211610f45578190611c3160018601546128e4565b601f8111611eb0575b50602090601f8311600114611e46578a92611e3b575b50508160011b916000199060031b1c19161760018301555b60408101518051906001600160401b038211610f4557611c8b60028501546128e4565b601f8111611df7575b50918795939189959360209a508a90601f8311600114611d72579360046080611d5d95858b9996611d21968e9c9a7fbc08b4cfc0f2a99c09576ab1e516bfd1b419ae23ec54804b8926c0d4c043291a9e92610b645750508160011b916000199060031b1c1916176002850155606081015160038501550151151591019060ff801983541691151516179055565b604051948594848a16907fddf252ad1be2c89b69c2b068fc378daa952ba7f163c4a11628f55a4df523b3ef8180a4604084526040840190612a54565b956044358984015216940390a3604051908152f35b906002850188528b882091885b601f1985168110611ddd57506080611d5d95600186611d21968e9c9a966004967fbc08b4cfc0f2a99c09576ab1e516bfd1b419ae23ec54804b8926c0d4c043291a9f9d9a601f19811610610bb457505050811b016002850155610a88565b8183015184558c9a50600190930192918d01918d01611d7f565b600285018a5260208a20601f840160051c810160208510611e34575b601f830160051c82018110611e29575050611c94565b8b8155600101611e13565b5080611e13565b015190503880611c50565b600186018b5260208b209250601f1984168b5b818110611e985750908460019594939210611e7f575b505050811b016001830155611c68565b015160001960f88460031b161c19169055388080611e6f565b92936020600181928786015181550195019301611e59565b909150600185018a5260208a20601f840160051c810160208510611ef9575b90849392915b601f830160051c82018110611eeb575050611c3a565b8c8155859450600101611ed5565b5080611ecf565b015190503880611bf7565b858b5260208b209250601f1984168b5b818110611f575750908460019594939210611f3e575b505050811b018255611c0c565b015160001960f88460031b161c19169055388080611f31565b92936020600181928786015181550195019301611f1b565b909150848a5260208a20601f840160051c810160208510611fb5575b90849392915b601f830160051c82018110611fa7575050611be1565b8c8155859450600101611f91565b5080611f8b565b015190503880611b12565b9250838a5260208a20908a935b601f1984168510612015576001945083601f19811610611ffc575b505050811b019055611b27565b015160001960f88460031b161c19169055388080611fef565b81810151835560209485019460019093019290910190611fd4565b909150838a5260208a20601f840160051c810160208510612076575b90849392915b601f830160051c82018110612068575050611afc565b8c8155859450600101612052565b508061204c565b015190503880611ab4565b9250838b5260208b20908b935b601f19841685106120d6576001945083601f198116106120bd575b505050811b019055611ac9565b015160001960f88460031b161c191690553880806120b0565b81810151835560209485019460019093019290910190612095565b909150838b5260208b20601f840160051c810160208510612138575b90849392915b8d601f840160051c8301821061212b57505050611a9e565b8155859450600101612113565b508061210d565b015190503880611a56565b9250838c5260208c20908c935b601f1984168510612198576001945083601f1981161061217f575b505050811b019055611a6b565b015160001960f88460031b161c19169055388080612172565b81810151835560209485019460019093019290910190612157565b909150838c5260208c20601f840160051c8101602085106121fb575b84939291908e5b601f840160051c830182106121ed57505050611a40565b81558594506001018e6121d6565b50806121cf565b634e487b7160e01b8b52604160045260248bfd5b9050870151386119ec565b9150828c5260208c208c925b601f198316841061226d576001935082601f19811610612254575b5050811b019055611a00565b89015160001960f88460031b161c191690553880612248565b8981015182556020938401936001909201910161222d565b828c5260208c20601f830160051c8101602084106122c0575b8d601f840160051c830182106122b6575050506119d6565b815560010161229e565b508061229e565b8680fd5b503461021b576122da36612b0c565b918284526020916004835260018060a01b03906122fe826040882054161515612c4c565b8486526004845281604087205416803314908115612474575b8115612457575b501561241a5784865260048452818060408820541693169283036123dc57169182156123985783855260108152600460408620916001600160601b0360a01b92838154169055528260408620918254161790557fddf252ad1be2c89b69c2b068fc378daa952ba7f163c4a11628f55a4df523b3ef8480a480f35b6064906040519062461bcd60e51b82526004820152601f60248201527f43616e6e6f74207472616e7366657220746f207a65726f2061646472657373006044820152fd5b60405162461bcd60e51b8152600481018590526016602482015275119c9bdb481859191c995cdcc81a5b98dbdc9c9958dd60521b6044820152606490fd5b60405162461bcd60e51b81526004810185905260156024820152742737ba1030b8383937bb32b21037b91037bbb732b960591b6044820152606490fd5b875250601184526040808720338852855286205460ff163861231e565b601086526040882054841633149150612317565b503461021b57602036600319011261021b57602090600435815260048252604060018060a01b0391205416604051908152f35b503461021b578060031936011261021b5760025460001981019190821161061257602082604051908152f35b503461021b57602036600319011261021b57604090600435808252600460205261251d60018060a01b0384842054161515612c4c565b8152600d602052818082205491600e602052205482519182526020820152f35b503461021b576020908160031936011261021b57600480358083529083526040822054612574906001600160a01b03161515612c4c565b81526005825260408120916006815260408220549260078252604083209260088352604081206009845260408220600a8552604083205494600b8152604084205460ff1691600c8252604085205493600d8352604086205495600e84526040902054966125e09061298b565b986125ea9061298b565b906125f49061298b565b916125fe9061298b565b926040519a8b9a610140808d528c0161261691612a54565b918b015289810360408b015261262b91612a54565b88810360608a015261263c91612a54565b878103608089015261264d91612a54565b9460a087015260c086015260e08501526101008401526101208301520390f35b503461021b57604036600319011261021b57612687612a79565b6024359081835260206004815260018060a01b039081604086205416338114908115612740575b50156127045783855260108152604080862080546001600160a01b03191694841694851790556004909152842054167f8c5be1e5ebec7d5bd14f71427d1e84f3dd0314c0f7b2291e5b200ac8c7c3b9258480a480f35b6064906040519062461bcd60e51b8252600482015260156024820152742737ba1037bbb732b91037b91037b832b930ba37b960591b6044820152fd5b865250601181526040808620338752825285205460ff16386126ae565b503461021b57602036600319011261021b576020906040600435918281526004845260018060a01b03926127978484842054161515612c4c565b815260108452205416604051908152f35b503461021b578060031936011261021b57604051908080546127c9816128e4565b8085529160019180831690811561284d57506001146127f3575b610217856102038187038261296a565b80809450527f290decd9548b62a8d60345a988386fc84ba6bc95484008f6362f93160ef3e5635b828410612835575050508101602001610203826102176127e3565b8054602085870181019190915290930192810161281a565b8695506102179693506020925061020394915060ff191682840152151560051b82010192936127e3565b90503461161f57602036600319011261161f5760043563ffffffff60e01b81168091036110e857602092506380ac58cd60e01b81149081156128d3575b81156128c2575b5015158152f35b6301ffc9a760e01b149050386128bb565b635b5e139f60e01b811491506128b4565b90600182811c92168015612914575b60208310146128fe57565b634e487b7160e01b600052602260045260246000fd5b91607f16916128f3565b60a081019081106001600160401b0382111761293957604052565b634e487b7160e01b600052604160045260246000fd5b602081019081106001600160401b0382111761293957604052565b90601f801991011681019081106001600160401b0382111761293957604052565b906040519182600082549261299f846128e4565b908184526001948581169081600014612a0e57506001146129cb575b50506129c99250038361296a565b565b9093915060005260209081600020936000915b8183106129f65750506129c9935082010138806129bb565b855488840185015294850194879450918301916129de565b9150506129c994506020925060ff191682840152151560051b82010138806129bb565b60005b838110612a445750506000910152565b8181015183820152602001612a34565b90602091612a6d81518092818552858086019101612a31565b601f01601f1916010190565b600435906001600160a01b038216820361027757565b3461027757602036600319011261027757612aa8612a79565b600354906001600160a01b0390818316612ad0576001600160a01b0319909216911617600355005b60405162461bcd60e51b8152602060048201526014602482015273141c9bdd1bd8dbdb08185b1c9958591e481cd95d60621b6044820152606490fd5b6060906003190112610277576001600160a01b0390600435828116810361027757916024359081168103610277579060443590565b6001600160401b03811161293957601f01601f191660200190565b81601f8201121561027757803590612b7382612b41565b92612b81604051948561296a565b8284526020838301011161027757816000926020809301838601378301015290565b9395949192612bd1608094612bc3612bdf9460a0895260a0890190612a54565b908782036020890152612a54565b908582036040870152612a54565b9460608401521515910152565b15612bf357565b60405162461bcd60e51b815260206004820152600c60248201526b139bdd081c1c9bdd1bd8dbdb60a21b6044820152606490fd5b6000198114612c365760010190565b634e487b7160e01b600052601160045260246000fd5b15612c5357565b60405162461bcd60e51b8152602060048201526014602482015273151bdad95b88191bd95cc81b9bdd08195e1a5cdd60621b6044820152606490fd5b600081815260209160048352612cb260018060a01b036040842054161515612c4c565b808252600f83526001612cc981604085200161298b565b8051612e975750612cd982612eda565b91835260058452604083206040519485937f646174613a6170706c69636174696f6e2f6a736f6e2c7b000000000000000000828601527f226e616d65223a225969656c645820496e766f696365202300000000000000006037860152612d488151809284604f89019101612a31565b84019061088b60f21b9586604f8401527f226465736372697074696f6e223a22546f6b656e697a6564204166726963616e60518401527f2074726164652066696e616e636520696e766f696365202d200000000000000060718401528094845494612db2866128e4565b95828116908115612e685750600114612e27575b5050505050509081612e2493602a93527f22696d616765223a22646174613a696d6167652f7376672b786d6c3b626173656002820152661b1a161717171160c91b6022820152607d60f81b602982015203600a81018452018261296a565b90565b9091809394959650528282205b858310612e51575050505001608a0182602a612e24388080612dc6565b8054838601608a0152889650918301918101612e34565b92505050602a969550608a939250612e249794915060ff19168383015280151502010191928194388080612dc6565b612e24935060279250612eca949150604051948266697066733a2f2f60c81b879485015282519283918686019101612a31565b810103600781018452018261296a565b8015612f9757600081805b612f835750612ef381612b41565b90612f01604051928361296a565b808252601f19612f1082612b41565b013660208401375b80928015612f7c576000198201918211612c36578193600a926030908484068201809211612c365785511115612f665760f81b6001600160f81b03191660001a908401601f01530491612f18565b634e487b7160e01b600052603260045260246000fd5b5050905090565b90612f8f600a91612c27565b910480612ee5565b50604051604081018181106001600160401b038211176129395760405260018152600360fc1b60208201529056fea264697066735822122086dbb5a376db2314721c1854551620c1b738159ed944ca62ef7a00a0ad3db6c964736f6c63430008140033",
  "linkReferences": {},
  "deployedLinkReferences": {}
}